{
  "contractName": "TareasContract",
  "abi": [
    {
      "inputs": [],
      "stateMutability": "nonpayable",
      "type": "constructor"
    },
    {
      "anonymous": false,
      "inputs": [
        {
          "indexed": false,
          "internalType": "uint256",
          "name": "id",
          "type": "uint256"
        },
        {
          "indexed": false,
          "internalType": "string",
          "name": "titulo",
          "type": "string"
        },
        {
          "indexed": false,
          "internalType": "string",
          "name": "descripcion",
          "type": "string"
        },
        {
          "indexed": false,
          "internalType": "bool",
          "name": "done",
          "type": "bool"
        },
        {
          "indexed": false,
          "internalType": "uint256",
          "name": "createAt",
          "type": "uint256"
        }
      ],
      "name": "TareaCreada",
      "type": "event"
    },
    {
      "anonymous": false,
      "inputs": [
        {
          "indexed": false,
          "internalType": "uint256",
          "name": "id",
          "type": "uint256"
        },
        {
          "indexed": false,
          "internalType": "bool",
          "name": "done",
          "type": "bool"
        }
      ],
      "name": "TareaToggledDone",
      "type": "event"
    },
    {
      "inputs": [
        {
          "internalType": "uint256",
          "name": "",
          "type": "uint256"
        }
      ],
      "name": "tareas",
      "outputs": [
        {
          "internalType": "uint256",
          "name": "id",
          "type": "uint256"
        },
        {
          "internalType": "string",
          "name": "titulo",
          "type": "string"
        },
        {
          "internalType": "string",
          "name": "descripcion",
          "type": "string"
        },
        {
          "internalType": "bool",
          "name": "done",
          "type": "bool"
        },
        {
          "internalType": "uint256",
          "name": "createAt",
          "type": "uint256"
        }
      ],
      "stateMutability": "view",
      "type": "function",
      "constant": true
    },
    {
      "inputs": [],
      "name": "tareasContador",
      "outputs": [
        {
          "internalType": "uint256",
          "name": "",
          "type": "uint256"
        }
      ],
      "stateMutability": "view",
      "type": "function",
      "constant": true
    },
    {
      "inputs": [
        {
          "internalType": "string",
          "name": "_titulo",
          "type": "string"
        },
        {
          "internalType": "string",
          "name": "_descripcion",
          "type": "string"
        }
      ],
      "name": "createTarea",
      "outputs": [],
      "stateMutability": "nonpayable",
      "type": "function"
    },
    {
      "inputs": [
        {
          "internalType": "uint256",
          "name": "_id",
          "type": "uint256"
        }
      ],
      "name": "toggleDone",
      "outputs": [],
      "stateMutability": "nonpayable",
      "type": "function"
    }
  ],
  "bytecode": "0x6080604052600080553480156200001557600080fd5b50620000926040518060400160405280600f81526020017f6d69207072696d657220746172656100000000000000000000000000000000008152506040518060400160405280601581526020017f6d69207072696d6572206465736372697063696f6e00000000000000000000008152506200009860201b60201c565b62000485565b600080815480929190620000ac9062000297565b91905055506040518060a00160405280600054815260200183815260200182815260200160001515815260200142815250600160008054815260200190815260200160002060008201518160000155602082015181600101908051906020019062000119929190620001ae565b50604082015181600201908051906020019062000138929190620001ae565b5060608201518160030160006101000a81548160ff021916908315150217905550608082015181600401559050507f93c6085b9a597cff48a2cc5e442d54165589e44bdf90687ec9cf5374e3c734d36000548383600042604051620001a2959493929190620003b6565b60405180910390a15050565b828054620001bc9062000450565b90600052602060002090601f016020900481019282620001e057600085556200022c565b82601f10620001fb57805160ff19168380011785556200022c565b828001600101855582156200022c579182015b828111156200022b5782518255916020019190600101906200020e565b5b5090506200023b91906200023f565b5090565b5b808211156200025a57600081600090555060010162000240565b5090565b7f4e487b7100000000000000000000000000000000000000000000000000000000600052601160045260246000fd5b6000819050919050565b6000620002a4826200028d565b91507fffffffffffffffffffffffffffffffffffffffffffffffffffffffffffffffff8203620002d957620002d86200025e565b5b600182019050919050565b620002ef816200028d565b82525050565b600081519050919050565b600082825260208201905092915050565b60005b838110156200033157808201518184015260208101905062000314565b8381111562000341576000848401525b50505050565b6000601f19601f8301169050919050565b60006200036582620002f5565b62000371818562000300565b93506200038381856020860162000311565b6200038e8162000347565b840191505092915050565b60008115159050919050565b620003b08162000399565b82525050565b600060a082019050620003cd6000830188620002e4565b8181036020830152620003e1818762000358565b90508181036040830152620003f7818662000358565b9050620004086060830185620003a5565b620004176080830184620002e4565b9695505050505050565b7f4e487b7100000000000000000000000000000000000000000000000000000000600052602260045260246000fd5b600060028204905060018216806200046957607f821691505b6020821081036200047f576200047e62000421565b5b50919050565b610ace80620004956000396000f3fe608060405234801561001057600080fd5b506004361061004c5760003560e01c806352154ba91461005157806382bef97b14610085578063d81ef739146100a3578063dc333c62146100bf575b600080fd5b61006b6004803603810190610066919061067f565b6100db565b60405161007c95949392919061076f565b60405180910390f35b61008d61022e565b60405161009a91906107d0565b60405180910390f35b6100bd60048036038101906100b8919061067f565b610234565b005b6100d960048036038101906100d49190610920565b610484565b005b6001602052806000526040600020600091509050806000015490806001018054610104906109c7565b80601f0160208091040260200160405190810160405280929190818152602001828054610130906109c7565b801561017d5780601f106101525761010080835404028352916020019161017d565b820191906000526020600020905b81548152906001019060200180831161016057829003601f168201915b505050505090806002018054610192906109c7565b80601f01602080910402602001604051908101604052809291908181526020018280546101be906109c7565b801561020b5780601f106101e05761010080835404028352916020019161020b565b820191906000526020600020905b8154815290600101906020018083116101ee57829003601f168201915b5050505050908060030160009054906101000a900460ff16908060040154905085565b60005481565b6000600160008381526020019081526020016000206040518060a00160405290816000820154815260200160018201805461026e906109c7565b80601f016020809104026020016040519081016040528092919081815260200182805461029a906109c7565b80156102e75780601f106102bc576101008083540402835291602001916102e7565b820191906000526020600020905b8154815290600101906020018083116102ca57829003601f168201915b50505050508152602001600282018054610300906109c7565b80601f016020809104026020016040519081016040528092919081815260200182805461032c906109c7565b80156103795780601f1061034e57610100808354040283529160200191610379565b820191906000526020600020905b81548152906001019060200180831161035c57829003601f168201915b505050505081526020016003820160009054906101000a900460ff16151515158152602001600482015481525050905080606001511581606001901515908115158152505080600160008481526020019081526020016000206000820151816000015560208201518160010190805190602001906103f8929190610592565b506040820151816002019080519060200190610415929190610592565b5060608201518160030160006101000a81548160ff021916908315150217905550608082015181600401559050507fe4a375dbc5b434a6fa7199ba6dde5aa6bfc2b48d47b9bc380dcbeb237d8f92988282606001516040516104789291906109f8565b60405180910390a15050565b60008081548092919061049690610a50565b91905055506040518060a001604052806000548152602001838152602001828152602001600015158152602001428152506001600080548152602001908152602001600020600082015181600001556020820151816001019080519060200190610501929190610592565b50604082015181600201908051906020019061051e929190610592565b5060608201518160030160006101000a81548160ff021916908315150217905550608082015181600401559050507f93c6085b9a597cff48a2cc5e442d54165589e44bdf90687ec9cf5374e3c734d3600054838360004260405161058695949392919061076f565b60405180910390a15050565b82805461059e906109c7565b90600052602060002090601f0160209004810192826105c05760008555610607565b82601f106105d957805160ff1916838001178555610607565b82800160010185558215610607579182015b828111156106065782518255916020019190600101906105eb565b5b5090506106149190610618565b5090565b5b80821115610631576000816000905550600101610619565b5090565b6000604051905090565b600080fd5b600080fd5b6000819050919050565b61065c81610649565b811461066757600080fd5b50565b60008135905061067981610653565b92915050565b6000602082840312156106955761069461063f565b5b60006106a38482850161066a565b91505092915050565b6106b581610649565b82525050565b600081519050919050565b600082825260208201905092915050565b60005b838110156106f55780820151818401526020810190506106da565b83811115610704576000848401525b50505050565b6000601f19601f8301169050919050565b6000610726826106bb565b61073081856106c6565b93506107408185602086016106d7565b6107498161070a565b840191505092915050565b60008115159050919050565b61076981610754565b82525050565b600060a08201905061078460008301886106ac565b8181036020830152610796818761071b565b905081810360408301526107aa818661071b565b90506107b96060830185610760565b6107c660808301846106ac565b9695505050505050565b60006020820190506107e560008301846106ac565b92915050565b600080fd5b600080fd5b7f4e487b7100000000000000000000000000000000000000000000000000000000600052604160045260246000fd5b61082d8261070a565b810181811067ffffffffffffffff8211171561084c5761084b6107f5565b5b80604052505050565b600061085f610635565b905061086b8282610824565b919050565b600067ffffffffffffffff82111561088b5761088a6107f5565b5b6108948261070a565b9050602081019050919050565b82818337600083830152505050565b60006108c36108be84610870565b610855565b9050828152602081018484840111156108df576108de6107f0565b5b6108ea8482856108a1565b509392505050565b600082601f830112610907576109066107eb565b5b81356109178482602086016108b0565b91505092915050565b600080604083850312156109375761093661063f565b5b600083013567ffffffffffffffff81111561095557610954610644565b5b610961858286016108f2565b925050602083013567ffffffffffffffff81111561098257610981610644565b5b61098e858286016108f2565b9150509250929050565b7f4e487b7100000000000000000000000000000000000000000000000000000000600052602260045260246000fd5b600060028204905060018216806109df57607f821691505b6020821081036109f2576109f1610998565b5b50919050565b6000604082019050610a0d60008301856106ac565b610a1a6020830184610760565b9392505050565b7f4e487b7100000000000000000000000000000000000000000000000000000000600052601160045260246000fd5b6000610a5b82610649565b91507fffffffffffffffffffffffffffffffffffffffffffffffffffffffffffffffff8203610a8d57610a8c610a21565b5b60018201905091905056fea264697066735822122026d3a2846296afc39e3f6a7a2ab4fdf87d4095d2dcaad863cfac6e983ea0391c64736f6c634300080d0033",
  "immutableReferences": {},
  "source": "// SPDX-License-Identifier: MIT\npragma solidity ^0.8.7;\n\ncontract TareasContract {\n\n    uint public tareasContador = 0;\n\n    constructor() {\n        createTarea(\"mi primer tarea\", \"mi primer descripcion\");\n    }\n    event TareaCreada(\n        uint id,\n        string titulo,\n        string descripcion,\n        bool done,\n        uint256 createAt //es el timestamp \n    );\n    event TareaToggledDone(uint256 id, bool done);\n\n    struct Tarea {\n        uint id;\n        string titulo;\n        string descripcion;\n        bool done;\n        uint256 createAt; //es el timestamp \n\n    }\n\n    mapping(uint256 => Tarea) public tareas;\n\n    function createTarea(string memory _titulo, string memory _descripcion) public {    //solo paso el titulo y la descripcion porque el resto se crea solo\n        tareasContador++;\n        tareas[tareasContador] = Tarea(tareasContador, _titulo, _descripcion,false, block.timestamp);\n        emit TareaCreada(tareasContador,_titulo,_descripcion,false,block.timestamp);\n    }\n\n\n     function toggleDone(uint256 _id) public {\n        Tarea memory _tarea = tareas[_id];\n        _tarea.done = !_tarea.done;\n        tareas[_id] = _tarea;\n        emit TareaToggledDone(_id, _tarea.done);\n    }\n\n}",
  "sourcePath": "/home/r08/Documentos/Proyectos/tareasContract/contracts/TareasContract.sol",
  "compiler": {
    "name": "solc",
    "version": "0.8.13+commit.abaa5c0e.Emscripten.clang"
  },
  "schemaVersion": "3.4.10",
  "updatedAt": "2022-09-27T13:33:02.254Z",
  "networkType": "ethereum",
  "devdoc": {
    "kind": "dev",
    "methods": {},
    "version": 1
  },
  "userdoc": {
    "kind": "user",
    "methods": {},
    "version": 1
  }
}